S00F00005072656C6162352E737265638A
S11300000C9434000C9446000C9446000C94460066
S11300100C9446000C9446000C9446000C94460044
S11300200C9446000C9446000C9446000C94460034
S11300300C9446000C9446000C9446000C94460024
S11300400C947D000C9446000C9446000C944600DD
S11300500C9446000C9412010C9446000C94460037
S11300600C9446000C94460011241FBECFEFD8E038
S1130070DEBFCDBF21E0A0E0B1E001C01D92A930F8
S1130080B207E1F70E9474000C94B0010C940000D4
S1130090ECE7F0E01082808180648083808180625C
S11300A080838081817F8083EAE7F0E01082808111
S11300B08B6880830895F894E1E6F0E080E880831B
S11300C084E0808384B18E6084B91092C1000E9460
S11300D03B010E9448000E946401EAE7F0E080814D
S11300E080648083789408950E945B008FE99FE088
S11300F00197F1F700C00000F9CF1F920F920FB6DD
S11301000F9211242F933F938F939F938091020119
S11301108F5F8093020190E02091000130910101F2
S11301208217930720F485B1886085B906C08217C9
S1130130930718F085B1877F85B9809102018431D6
S113014010F0109202018BEF86BD9F918F913F9129
S11301502F910F900FBE0F901F901895282F30E00D
S1130160AFEEB0E00E94A1012FEF30E040E050E09C
S11301700E947F01C9018B5B9F4F089590938B0070
S113018080938A000895809103018130C9F018F0AA
S1130190823051F13DC0ECE7F0E08081807F8083C4
S11301A080818160808380917900809308010E941E
S11301B04F0190930501809304010E945F0128C0C0
S11301C0ECE7F0E08081807F80838081826080839F
S11301D080917900809306010E94710190E09093D0
S11301E001018093000114C0ECE7F0E08081807F7E
S11301F0808380818460808380917900809307016B
S11302000E94AE0090930501809304010E94BE00F9
S1130210809103018F5F80930301833011F4109266
S1130220030108951F920F920FB60F9211242F937A
S11302303F934F935F936F937F938F939F93AF936A
S1130240BF93EF93FF930E94C300EAE7F0E080813D
S113025080648083FF91EF91BF91AF919F918F91C3
S11302607F916F915F914F913F912F910F900FBEAE
S11302700F901F901895E0E8F0E08081806A8083F9
S1130280808182608083E1E8F0E080818A618083FC
S113029083EC99E090938700809386000895282F3B
S11302A030E0AFEEB0E00E94A1012FEF30E040E07B
S11302B050E00E947F01C9018B5B9F4F089590938A
S11302C08900809388000895EEE6F0E080818160E3
S11302D0808384B584BD85B5826085BD8BEF86BD82
S11302E00895282F30E0A2E3B0E00E94A1012FEF8F
S11302F030E040E050E00E947F01822F0895A1E2A7
S11303001A2EAA1BBB1BFD010DC0AA1FBB1FEE1F8B
S1130310FF1FA217B307E407F50720F0A21BB30BD6
S1130320E40BF50B661F771F881F991F1A9469F752
S113033060957095809590959B01AC01BD01CF01AE
S11303400895A29FB001B39FC001A39F700D811DAA
S11303501124911DB29F700D811D1124911D0895CA
S1070360F894FFCF3B
S9030000FC
