S00F00005072656C6162352E737265638A
S11300000C9434000C9446000C9446000C94460066
S11300100C9446000C9446000C9446000C94460044
S11300200C9446000C9446000C9446000C94460034
S11300300C9446000C9446000C9446000C94460024
S11300400C9446000C9446000C9446000C94460014
S11300500C9446000C9476000C9446000C944600D4
S11300600C9446000C94460011241FBECFEFD8E038
S1130070DEBFCDBF21E0A0E0B1E001C01D92A330FE
S1130080B207E1F70E9473000C9409010C9400007C
S1130090ECE7F0E01082808180648083808180625C
S11300A080838081817F8083808181608083EAE78F
S11300B0F0E0108280818B688083808180648083FB
S11300C00895F894E1E6F0E080E8808384E080839A
S11300D084B1826084B91092C1000E94AF000E9472
S11300E04800789408950E946100FFCF1F920F92F8
S11300F00FB60F9211242F933F934F935F936F93F7
S11301007F938F939F93AF93BF93EF93FF938091CC
S11301107900809300010E94C300909302018093B0
S113012001010E94D3008FE99FE00197F1F700C01D
S11301300000EAE7F0E0808180648083FF91EF9122
S1130140BF91AF919F918F917F916F915F914F91EB
S11301503F912F910F900FBE0F901F901895E0E8DC
S1130160F0E0808180688083808182608083E1E820
S1130170F0E080818A61808383EC99E0909387002A
S1130180809386000895282F30E0AFEEB0E00E94FF
S1130190FA002FEF30E040E050E00E94D800C9019F
S11301A08B5B9F4F089590938900809388000895F6
S11301B0A1E21A2EAA1BBB1BFD010DC0AA1FBB1F67
S11301C0EE1FFF1FA217B307E407F50720F0A21BD9
S11301D0B30BE40BF50B661F771F881F991F1A9446
S11301E069F760957095809590959B01AC01BD0170
S11301F0CF010895A29FB001B39FC001A39F700DCA
S1130200811D1124911DB29F700D811D1124911D1A
S10902100895F894FFCFED
S9030000FC
